{
  "_format": "hh-sol-artifact-1",
  "contractName": "VaultManager",
  "sourceName": "contracts/VaultManager.sol",
  "abi": [
    {
      "anonymous": false,
      "inputs": [
        {
          "indexed": true,
          "internalType": "address",
          "name": "user",
          "type": "address"
        },
        {
          "indexed": false,
          "internalType": "string",
          "name": "cid",
          "type": "string"
        }
      ],
      "name": "VaultCIDUpdated",
      "type": "event"
    },
    {
      "inputs": [
        {
          "internalType": "address",
          "name": "user",
          "type": "address"
        }
      ],
      "name": "getVaultCID",
      "outputs": [
        {
          "internalType": "string",
          "name": "",
          "type": "string"
        }
      ],
      "stateMutability": "view",
      "type": "function"
    },
    {
      "inputs": [
        {
          "internalType": "string",
          "name": "cid",
          "type": "string"
        }
      ],
      "name": "setVaultCID",
      "outputs": [],
      "stateMutability": "nonpayable",
      "type": "function"
    },
    {
      "inputs": [
        {
          "internalType": "address",
          "name": "",
          "type": "address"
        }
      ],
      "name": "userVaultCIDs",
      "outputs": [
        {
          "internalType": "string",
          "name": "",
          "type": "string"
        }
      ],
      "stateMutability": "view",
      "type": "function"
    }
  ],
  "bytecode": "0x6080604052348015600f57600080fd5b506108bc8061001f6000396000f3fe608060405234801561001057600080fd5b50600436106100415760003560e01c806364b630ee14610046578063a3e482b314610062578063c150c5c014610092575b600080fd5b610060600480360381019061005b9190610429565b6100c2565b005b61007c600480360381019061007791906104d0565b61015f565b604051610089919061057c565b60405180910390f35b6100ac60048036038101906100a791906104d0565b61022f565b6040516100b9919061057c565b60405180910390f35b806000803373ffffffffffffffffffffffffffffffffffffffff1673ffffffffffffffffffffffffffffffffffffffff168152602001908152602001600020908161010d91906107b4565b503373ffffffffffffffffffffffffffffffffffffffff167f580ff7b57b0c6bf274057f545572ebb77e54da8dc75100ee3d4c087de61fb83f82604051610154919061057c565b60405180910390a250565b60606000808373ffffffffffffffffffffffffffffffffffffffff1673ffffffffffffffffffffffffffffffffffffffff16815260200190815260200160002080546101aa906105cd565b80601f01602080910402602001604051908101604052809291908181526020018280546101d6906105cd565b80156102235780601f106101f857610100808354040283529160200191610223565b820191906000526020600020905b81548152906001019060200180831161020657829003601f168201915b50505050509050919050565b6000602052806000526040600020600091509050805461024e906105cd565b80601f016020809104026020016040519081016040528092919081815260200182805461027a906105cd565b80156102c75780601f1061029c576101008083540402835291602001916102c7565b820191906000526020600020905b8154815290600101906020018083116102aa57829003601f168201915b505050505081565b6000604051905090565b600080fd5b600080fd5b600080fd5b600080fd5b6000601f19601f8301169050919050565b7f4e487b7100000000000000000000000000000000000000000000000000000000600052604160045260246000fd5b610336826102ed565b810181811067ffffffffffffffff82111715610355576103546102fe565b5b80604052505050565b60006103686102cf565b9050610374828261032d565b919050565b600067ffffffffffffffff821115610394576103936102fe565b5b61039d826102ed565b9050602081019050919050565b82818337600083830152505050565b60006103cc6103c784610379565b61035e565b9050828152602081018484840111156103e8576103e76102e8565b5b6103f38482856103aa565b509392505050565b600082601f8301126104105761040f6102e3565b5b81356104208482602086016103b9565b91505092915050565b60006020828403121561043f5761043e6102d9565b5b600082013567ffffffffffffffff81111561045d5761045c6102de565b5b610469848285016103fb565b91505092915050565b600073ffffffffffffffffffffffffffffffffffffffff82169050919050565b600061049d82610472565b9050919050565b6104ad81610492565b81146104b857600080fd5b50565b6000813590506104ca816104a4565b92915050565b6000602082840312156104e6576104e56102d9565b5b60006104f4848285016104bb565b91505092915050565b600081519050919050565b600082825260208201905092915050565b60005b8381101561053757808201518184015260208101905061051c565b60008484015250505050565b600061054e826104fd565b6105588185610508565b9350610568818560208601610519565b610571816102ed565b840191505092915050565b600060208201905081810360008301526105968184610543565b905092915050565b7f4e487b7100000000000000000000000000000000000000000000000000000000600052602260045260246000fd5b600060028204905060018216806105e557607f821691505b6020821081036105f8576105f761059e565b5b50919050565b60008190508160005260206000209050919050565b60006020601f8301049050919050565b600082821b905092915050565b6000600883026106607fffffffffffffffffffffffffffffffffffffffffffffffffffffffffffffffff82610623565b61066a8683610623565b95508019841693508086168417925050509392505050565b6000819050919050565b6000819050919050565b60006106b16106ac6106a784610682565b61068c565b610682565b9050919050565b6000819050919050565b6106cb83610696565b6106df6106d7826106b8565b848454610630565b825550505050565b600090565b6106f46106e7565b6106ff8184846106c2565b505050565b5b81811015610723576107186000826106ec565b600181019050610705565b5050565b601f82111561076857610739816105fe565b61074284610613565b81016020851015610751578190505b61076561075d85610613565b830182610704565b50505b505050565b600082821c905092915050565b600061078b6000198460080261076d565b1980831691505092915050565b60006107a4838361077a565b9150826002028217905092915050565b6107bd826104fd565b67ffffffffffffffff8111156107d6576107d56102fe565b5b6107e082546105cd565b6107eb828285610727565b600060209050601f83116001811461081e576000841561080c578287015190505b6108168582610798565b86555061087e565b601f19841661082c866105fe565b60005b828110156108545784890151825560018201915060208501945060208101905061082f565b86831015610871578489015161086d601f89168261077a565b8355505b6001600288020188555050505b50505050505056fea2646970667358221220aeaaf48f157dde0a2f813bfaefb4dff5e9a7b1d592414db66474d5d1fd7511c664736f6c634300081c0033",
  "linkReferences": {},
  "deployedLinkReferences": {}
}